:100000000C942A000C9447000C9447000C94470071
:100010000C9447000C9447000C9447000C94470044
:100020000C9447000C9447000C9447000C94470034
:100030000C9447000C9447000C9447000C94470024
:100040000C9447000C9447000C9447000C94470014
:100050000C94470011241FBECFE5D8E0DEBFCDBF12
:1000600011E0A0E6B0E0EEE0F5E002C005900D92F0
:10007000A431B107D9F711E0A4E1B1E001C01D92AC
:10008000AB31B107E1F70E94C7010C9485020C94D3
:10009000000088E18AB986E880BD83E389B910BC95
:1000A00008955D9BFECF8CB908955F9BFECF8CB108
:1000B0000895FC0104C05D9BFECF8CB93196808110
:1000C0008823C9F708950F931F93DF93CF93CDB77C
:1000D000DEB764970FB6F894DEBF0FBECDBF8E01BA
:1000E0000F5F1F4FB8014AE050E00E944002C80174
:1000F0000E94590064960FB6F894DEBF0FBECDBFC4
:10010000CF91DF911F910F91089580EB87BBBE982F
:1001100080E58DB9689AC49808958FB9779BFECF12
:100120008FB1089580E487BB8DB90895882311F0BD
:10013000C49A0895C4980895882311F0939A089555
:1001400093980895C4988FEF0E948D00C49A0895E3
:100150000E94A20085FF02C080E0089584FD02C0D5
:100160008FEF089581E008950E94A20090E08073CF
:1001700009F491E0892F0895DF92EF92FF920F9397
:100180001F93CF93DF937B01D42E8C01C0E0D0E08E
:100190000AC0F80181918F010E948D00F701EC0FD8
:1001A000FD1F80832196CD15A0F3DF91CF911F9184
:1001B0000F91FF90EF90DF900895FF920F931F93A0
:1001C0008B01F42EC4988F710E948D00C801B80174
:1001D0004F2D0E94BC00C49A1F910F91FF9008956B
:1001E000DF93CF930F92CDB7DEB788E0BE016F5F8C
:1001F0007F4F41E00E94DD0089818F700F90CF9189
:10020000DF9108950F931F93CF93DF93062FEC0197
:1002100010E004C089910E948D001F5F1017D0F379
:10022000DF91CF911F910F910895FF920F931F932C
:100230008B01F42EC4988F7180620E948D00C801DA
:100240006F2D0E940201C49A1F910F91FF90089593
:10025000BC0193988BE045E00E941501939A0895A4
:100260000F931F938C018AE0B80145E00E941501AD
:1002700080E1B80145E00E9415011F910F9108959A
:100280001F93162FC4988F7180620E948D00812F5A
:100290000E948D00C49A1F910895939880E068E0B1
:1002A0000E944001089587E060E70E94400180E0DD
:1002B0006AE00E94400108950F931F938C01939868
:1002C0000E945301C49881EE0E948D00C49AC49884
:1002D00080EA0E948D00C801609115010E94020110
:1002E000C49A939A1F910F910895C49882EE0E9428
:1002F0008D00C49A87E060E70E944001939880E0F7
:100300006BE00E944001939A0895982F6093150125
:1003100085E0692F0E94400181E160E00E94400178
:1003200082E1609115010E94400183E160E00E943A
:10033000400184E160E00E94400185E160E00E94AC
:10034000400186E160E00E94400186E066E00E9494
:10035000400180E068E00E94400181E063E00E948B
:10036000400182E063E00E94400184E06FE40E946B
:1003700040018CE160E00E9440010E9475010895F7
:100380000E9485008B9ABC9A9398C49A0895EF9224
:10039000FF920F931F93CF93DF930E94490088EE43
:1003A00093E028EC30E0F9013197F1F70197D9F7A4
:1003B00080E690E00E9459000E94C00182E064E063
:1003C0000E94850189E091E00E9430018EE091E079
:1003D0000E9428018EE690E00E9459009EE4E92EDA
:1003E0008DE4F82E02E51FE5C8ECD0E0E09217019D
:1003F000F09218010093190110931A018BE790E015
:100400000E94590087E191E00E945C018CE890E035
:100410000E9459000E94B4008823E1F782EA90E02C
:100420000E9459000E94A80080931601882319F4A5
:100430008FEB90E004C0813021F485ED90E00E94C4
:1004400059000E94F000809316018BEE90E00E940C
:1004500059008091160190E00E94630080E091E0D5
:100460000E9459000E94750180E29EE4FE013197CE
:10047000F1F70197D9F783E091E00E945900B6CFD8
:10048000FB019F01E8944230C4F04532B4F44A3095
:1004900029F497FB1EF4909581959F4F642F772741
:1004A0000E947102805D8A330CF0895D8193CB01DB
:1004B0000097A1F716F45DE251931082C9010C94E4
:1004C0006102DC01FC01672F71917723E1F732971C
:1004D00004C07C916D9370836291AE17BF07C8F31F
:1004E0000895AA1BBB1B51E107C0AA1FBB1FA6177B
:1004F000B70710F0A61BB70B881F991F5A95A9F7CD
:0E05000080959095BC01CD010895F894FFCF31
:10050E0053797374656D20696E69740D0A005374A6
:10051E006172742050726F670D0A0073656E6420ED
:10052E007468652061727261790D0A006172726180
:10053E007920686173206265656E2073656E740D37
:10054E000A007472616E736D6973696F6E206861F3
:10055E0073206265656E20656E6465640D0A0054D5
:10056E0072616E6D697373696F6E2077656E74203C
:10057E004F4B0D0A004D65737361676520697320DB
:10058E006C6F7374202E2E2E0D0A005265747261DC
:10059E006E6D697373696F6E20636F756E743A005A
:1005AE000D0A00456E640D0A00E7E7E7E7E7D7D7C7
:0405BE00D7D7D700B4
:00000001FF
