:100000000C942A000C9447000C9447000C94470071
:100010000C9447000C9447000C9447000C94470044
:100020000C9447000C9447000C9447000C94470034
:100030000C9447000C9447000C9447000C94470024
:100040000C9447000C9447000C9447000C94470014
:100050000C94470011241FBECFE5D8E0DEBFCDBF12
:1000600011E0A0E6B0E0E2E1F5E002C005900D92FB
:10007000A431B107D9F711E0A4E1B1E001C01D92AC
:10008000AB31B107E1F70E94C9010C9487020C94CF
:10009000000082E08BB988E18AB986E880BD88E0FB
:1000A00089B910BC08955D9BFECF8CB908955F9B04
:1000B000FECF8CB10895FC0104C05D9BFECF8CB9CE
:1000C000319680818823C9F708950F931F93DF939A
:1000D000CF93CDB7DEB764970FB6F894DEBF0FBEEF
:1000E000CDBF8E010F5F1F4FB8014AE050E00E9464
:1000F0004202C8010E945B0064960FB6F894DEBF0E
:100100000FBECDBFCF91DF911F910F91089580EB6E
:1001100087BBBE9880E58DB9689AC49808958FB959
:10012000779BFECF8FB1089580E487BB8DB908958A
:10013000882311F0C49A0895C4980895882311F073
:10014000C39A0895C3980895C4988FEF0E948F00B2
:10015000C49A08950E94A40085FF02C080E008951B
:1001600084FD02C08FEF089581E008950E94A400ED
:1001700090E0807309F491E0892F0895DF92EF9267
:10018000FF920F931F93CF93DF937B01D42E8C01AB
:10019000C0E0D0E00AC0F80181918F010E948F0079
:1001A000F701EC0FFD1F80832196CD15A0F3DF91A1
:1001B000CF911F910F91FF90EF90DF900895FF92E4
:1001C0000F931F938B01F42EC4988F710E948F00A0
:1001D000C801B8014F2D0E94BE00C49A1F910F9113
:1001E000FF900895DF93CF930F92CDB7DEB788E0ED
:1001F000BE016F5F7F4F41E00E94DF0089818F70F9
:100200000F90CF91DF9108950F931F93CF93DF93BA
:10021000062FEC0110E004C089910E948F001F5F3F
:100220001017D0F3DF91CF911F910F910895FF9296
:100230000F931F938B01F42EC4988F7180620E94DC
:100240008F00C8016F2D0E940401C49A1F910F9165
:10025000FF900895BC01C3988BE045E00E94170110
:10026000C39A08950F931F938C018AE0B80145E06B
:100270000E94170180E1B80145E00E9417011F911B
:100280000F9108951F93162FC4988F7180620E945A
:100290008F00812F0E948F00C49A1F910895C398E8
:1002A00080E068E00E944201089587E060E70E94D4
:1002B000420180E06AE00E94420108950F931F937B
:1002C0008C01C3980E945501C49881EE0E948F0052
:1002D000C49AC49880EA0E948F00C80160911501F9
:1002E0000E940401C49AC39A1F910F910895C49863
:1002F00082EE0E948F00C49A87E060E70E9442016C
:10030000C39880E06BE00E944201C39A0895982F41
:100310006093150185E0692F0E94420181E160E050
:100320000E94420182E1609115010E94420183E135
:1003300060E00E94420184E160E00E94420185E1A8
:1003400060E00E94420186E160E00E94420186E096
:1003500066E00E94420180E068E00E94420181E084
:1003600063E00E94420182E063E00E94420184E077
:100370006FE40E9442018CE160E00E9442010E9411
:10038000770108950E948700BB9ABC9AC398C49ACB
:100390000895EF92FF920F931F93CF93DF930E94E4
:1003A000490088EE93E028EC30E0F9013197F1F74D
:1003B0000197D9F780E690E00E945B000E94C2019D
:1003C00082E064E00E94870189E091E00E943201AE
:1003D0008EE091E00E942A018EE690E00E945B0090
:1003E0009EE6E92E8DE6F82E02E711E3C8ECD0E098
:1003F000E0921701F09218010093190110931A016D
:100400008BE790E00E945B0087E191E00E945E0133
:100410008CE890E00E945B000E94B6008823E1F720
:1004200082EA90E00E945B000E94AA00809316017D
:10043000882319F48FEB90E004C0813021F485ED1E
:1004400090E00E945B000E94F200809316018BEE08
:1004500090E00E945B008091160190E00E94650090
:1004600080E091E00E945B000E94770180E29EE4C0
:10047000FE013197F1F70197D9F783E091E00E94EF
:100480005B00B6CFFB019F01E8944230C4F04532D7
:10049000B4F44A3029F497FB1EF4909581959F4F50
:1004A000642F77270E947302805D8A330CF0895D88
:1004B0008193CB010097A1F716F45DE2519310826E
:1004C000C9010C946302DC01FC01672F7191772351
:1004D000E1F7329704C07C916D9370836291AE17FF
:1004E000BF07C8F30895AA1BBB1B51E107C0AA1F91
:1004F000BB1FA617B70710F0A61BB70B881F991FC5
:100500005A95A9F780959095BC01CD010895F8946E
:02051000FFCF1B
:1005120053797374656D20696E69740D0A005374A2
:100522006172742050726F670D0A0073656E6420E9
:100532007468652061727261790D0A00617272617C
:100542007920686173206265656E2073656E740D33
:100552000A007472616E736D6973696F6E206861EF
:1005620073206265656E20656E6465640D0A0054D1
:1005720072616E6D697373696F6E2077656E742038
:100582004F4B0D0A004D65737361676520697320D7
:100592006C6F7374202E2E2E0D0A005265747261D8
:1005A2006E6D697373696F6E20636F756E743A0056
:1005B2000D0A00456E640D0A00E7E7E7E7E7D7D7C3
:0405C200D7D7D700B0
:00000001FF
